{
  "contractName": "mediator",
  "abi": [
    {
      "constant": true,
      "inputs": [
        {
          "name": "",
          "type": "uint256"
        }
      ],
      "name": "events",
      "outputs": [
        {
          "name": "addr",
          "type": "address"
        },
        {
          "name": "people",
          "type": "uint256"
        },
        {
          "name": "identifier",
          "type": "string"
        },
        {
          "name": "price",
          "type": "uint256"
        },
        {
          "name": "lastUpdated",
          "type": "uint256"
        },
        {
          "name": "balance",
          "type": "uint256"
        }
      ],
      "payable": false,
      "stateMutability": "view",
      "type": "function"
    },
    {
      "constant": false,
      "inputs": [
        {
          "name": "identifier",
          "type": "string"
        },
        {
          "name": "price",
          "type": "uint256"
        }
      ],
      "name": "createEstablishment",
      "outputs": [],
      "payable": false,
      "stateMutability": "nonpayable",
      "type": "function"
    },
    {
      "constant": false,
      "inputs": [
        {
          "name": "identifier",
          "type": "string"
        },
        {
          "name": "people",
          "type": "uint256"
        }
      ],
      "name": "setPopulation",
      "outputs": [],
      "payable": false,
      "stateMutability": "nonpayable",
      "type": "function"
    },
    {
      "constant": false,
      "inputs": [
        {
          "name": "identifier",
          "type": "string"
        }
      ],
      "name": "getPopulation",
      "outputs": [
        {
          "name": "people",
          "type": "uint256"
        },
        {
          "name": "lastUpdated",
          "type": "uint256"
        }
      ],
      "payable": true,
      "stateMutability": "payable",
      "type": "function"
    },
    {
      "constant": false,
      "inputs": [
        {
          "name": "identifier",
          "type": "string"
        }
      ],
      "name": "getBalance",
      "outputs": [
        {
          "name": "balance",
          "type": "uint256"
        }
      ],
      "payable": false,
      "stateMutability": "nonpayable",
      "type": "function"
    },
    {
      "constant": false,
      "inputs": [
        {
          "name": "amount",
          "type": "uint256"
        },
        {
          "name": "identifier",
          "type": "string"
        }
      ],
      "name": "withdraw",
      "outputs": [],
      "payable": false,
      "stateMutability": "nonpayable",
      "type": "function"
    }
  ],
  "bytecode": "0x6060604052341561000f57600080fd5b610f198061001e6000396000f300606060405260043610610078576000357c0100000000000000000000000000000000000000000000000000000000900463ffffffff1680630b7914301461007d5780633a51d246146101855780634bb86a2b146101f6578063dc048cf214610263578063ec4e32b5146102c9578063ff465ede1461032f575b600080fd5b341561008857600080fd5b61009e6004808035906020019091905050610395565b604051808773ffffffffffffffffffffffffffffffffffffffff1673ffffffffffffffffffffffffffffffffffffffff168152602001868152602001806020018581526020018481526020018381526020018281038252868181546001816001161561010002031660029004815260200191508054600181600116156101000203166002900480156101715780601f1061014657610100808354040283529160200191610171565b820191906000526020600020905b81548152906001019060200180831161015457829003601f168201915b505097505050505050505060405180910390f35b341561019057600080fd5b6101e0600480803590602001908201803590602001908080601f016020809104026020016040519081016040528093929190818152602001838380828437820191505050505050919050506103ff565b6040518082815260200191505060405180910390f35b610246600480803590602001908201803590602001908080601f0160208091040260200160405190810160405280939291908181526020018383808284378201915050505050509190505061053f565b604051808381526020018281526020019250505060405180910390f35b341561026e57600080fd5b6102c7600480803590602001909190803590602001908201803590602001908080601f016020809104026020016040519081016040528093929190818152602001838380828437820191505050505050919050506106a5565b005b34156102d457600080fd5b61032d600480803590602001908201803590602001908080601f01602080910402602001604051908101604052809392919081815260200183838082843782019150505050505091908035906020019091905050610823565b005b341561033a57600080fd5b610393600480803590602001908201803590602001908080601f01602080910402602001604051908101604052809392919081815260200183838082843782019150505050505091908035906020019091905050610b1f565b005b6000818154811015156103a457fe5b90600052602060002090600602016000915090508060000160009054906101000a900473ffffffffffffffffffffffffffffffffffffffff169080600101549080600201908060030154908060040154908060050154905086565b60006002826040518082805190602001908083835b6020831015156104395780518252602082019150602081019050602083039250610414565b6001836020036101000a038019825116818451168082178552505050505050905001915050908152602001604051809103902060000160009054906101000a900473ffffffffffffffffffffffffffffffffffffffff1673ffffffffffffffffffffffffffffffffffffffff163373ffffffffffffffffffffffffffffffffffffffff161415156104c957600080fd5b6002826040518082805190602001908083835b60208310151561050157805182526020820191506020810190506020830392506104dc565b6001836020036101000a0380198251168184511680821785525050505050509050019150509081526020016040518091039020600501549050919050565b6000806002836040518082805190602001908083835b60208310151561057a5780518252602082019150602081019050602083039250610555565b6001836020036101000a038019825116818451168082178552505050505050905001915050908152602001604051809103902060030154341115156105be57600080fd5b6002836040518082805190602001908083835b6020831015156105f657805182526020820191506020810190506020830392506105d1565b6001836020036101000a0380198251168184511680821785525050505050509050019150509081526020016040518091039020600101546002846040518082805190602001908083835b6020831015156106655780518252602082019150602081019050602083039250610640565b6001836020036101000a03801982511681845116808217855250505050505090500191505090815260200160405180910390206004015491509150915091565b6002816040518082805190602001908083835b6020831015156106dd57805182526020820191506020810190506020830392506106b8565b6001836020036101000a0380198251168184511680821785525050505050509050019150509081526020016040518091039020600501548210151561072157600080fd5b6002816040518082805190602001908083835b6020831015156107595780518252602082019150602081019050602083039250610734565b6001836020036101000a038019825116818451168082178552505050505050905001915050908152602001604051809103902060000160009054906101000a900473ffffffffffffffffffffffffffffffffffffffff1673ffffffffffffffffffffffffffffffffffffffff163373ffffffffffffffffffffffffffffffffffffffff161415156107e957600080fd5b3373ffffffffffffffffffffffffffffffffffffffff166108fc839081150290604051600060405180830381858888f19350505050505050565b600160003373ffffffffffffffffffffffffffffffffffffffff1673ffffffffffffffffffffffffffffffffffffffff16815260200190815260200160002060009054906101000a900460ff1615151561087c57600080fd5b600080548060010182816108909190610cd1565b9160005260206000209060060201600060c0604051908101604052803373ffffffffffffffffffffffffffffffffffffffff168152602001600081526020018681526020018581526020014281526020016000815250909190915060008201518160000160006101000a81548173ffffffffffffffffffffffffffffffffffffffff021916908373ffffffffffffffffffffffffffffffffffffffff160217905550602082015181600101556040820151816002019080519060200190610958929190610d03565b50606082015181600301556080820151816004015560a0820151816005015550505060018060003373ffffffffffffffffffffffffffffffffffffffff1673ffffffffffffffffffffffffffffffffffffffff16815260200190815260200160002060006101000a81548160ff02191690831515021790555060006001600080549050038154811015156109e857fe5b90600052602060002090600602016002836040518082805190602001908083835b602083101515610a2e5780518252602082019150602081019050602083039250610a09565b6001836020036101000a03801982511681845116808217855250505050505090500191505090815260200160405180910390206000820160009054906101000a900473ffffffffffffffffffffffffffffffffffffffff168160000160006101000a81548173ffffffffffffffffffffffffffffffffffffffff021916908373ffffffffffffffffffffffffffffffffffffffff1602179055506001820154816001015560028201816002019080546001816001161561010002031660029004610af9929190610d83565b506003820154816003015560048201548160040155600582015481600501559050505050565b6002826040518082805190602001908083835b602083101515610b575780518252602082019150602081019050602083039250610b32565b6001836020036101000a038019825116818451168082178552505050505050905001915050908152602001604051809103902060000160009054906101000a900473ffffffffffffffffffffffffffffffffffffffff1673ffffffffffffffffffffffffffffffffffffffff163373ffffffffffffffffffffffffffffffffffffffff16141515610be757600080fd5b806002836040518082805190602001908083835b602083101515610c205780518252602082019150602081019050602083039250610bfb565b6001836020036101000a038019825116818451168082178552505050505050905001915050908152602001604051809103902060010181905550426002836040518082805190602001908083835b602083101515610c935780518252602082019150602081019050602083039250610c6e565b6001836020036101000a0380198251168184511680821785525050505050509050019150509081526020016040518091039020600401819055505050565b815481835581811511610cfe57600602816006028360005260206000209182019101610cfd9190610e0a565b5b505050565b828054600181600116156101000203166002900490600052602060002090601f016020900481019282601f10610d4457805160ff1916838001178555610d72565b82800160010185558215610d72579182015b82811115610d71578251825591602001919060010190610d56565b5b509050610d7f9190610e80565b5090565b828054600181600116156101000203166002900490600052602060002090601f016020900481019282601f10610dbc5780548555610df9565b82800160010185558215610df957600052602060002091601f016020900482015b82811115610df8578254825591600101919060010190610ddd565b5b509050610e069190610e80565b5090565b610e7d91905b80821115610e7957600080820160006101000a81549073ffffffffffffffffffffffffffffffffffffffff02191690556001820160009055600282016000610e589190610ea5565b60038201600090556004820160009055600582016000905550600601610e10565b5090565b90565b610ea291905b80821115610e9e576000816000905550600101610e86565b5090565b90565b50805460018160011615610100020316600290046000825580601f10610ecb5750610eea565b601f016020900490600052602060002090810190610ee99190610e80565b5b505600a165627a7a7230582030cf31b21f1f84f36d3314aa23148290f534ebcb6c0bfa2f111164d6168bbf5a0029",
  "source": "/**\n * The mediator contract does this and that...\n */\n\npragma solidity ^0.4.19;\n\n\ncontract mediator {\n\tstruct Event {\n\t\taddress addr;\n\t\tuint people;\n\t\tstring identifier;\n\t\tuint price;\n\t\tuint lastUpdated;\n\t\tuint balance; //balance in wei\n\t}\n\n\tEvent[] public events;\n\tmapping (address => bool) exist;\n\tmapping (string => Event) identifierToEvent;\n\n\tmodifier onlyBy(address _account) { \n\t\trequire (msg.sender == _account); \n\t\t_; \n\t}\t\n\n\t//Register a new bar,club,event etc.\n\tfunction createEstablishment (string identifier,uint price) public {\n\t\trequire(!exist[msg.sender]);\t\n\t\tevents.push(Event(msg.sender,0,identifier,price,now,0));\n\n\t\texist[msg.sender] = true;\n\t\tidentifierToEvent[identifier] = events[events.length-1];\n\t}\n\t\n\t//Send population data from sensor\n\tfunction setPopulation (string identifier,uint people) public {\n\t\trequire(msg.sender == identifierToEvent[identifier].addr); //require that the caller be the owner of the establishment, otherwise throw an error\n\t\tidentifierToEvent[identifier].people = people;\n\t\tidentifierToEvent[identifier].lastUpdated = now;\n\t}\n\t\n\t//Retrieve population data\n\tfunction getPopulation (string identifier) public payable returns(uint256 people, uint lastUpdated) {\n\t\trequire(msg.value > identifierToEvent[identifier].price); //require that the sender sends more than the what the establishment set as the price of data\n\t\treturn(identifierToEvent[identifier].people,identifierToEvent[identifier].lastUpdated);\t\n\t}\n\n\t//Get sensor balance\n\tfunction getBalance (string identifier) public returns(uint balance){\n\t\trequire(msg.sender == identifierToEvent[identifier].addr); //require that the caller be the owner of the establishment, otherwise throw an error\n\t\treturn(identifierToEvent[identifier].balance);\n\t}\n\n\t//Withdraw sensor balance to sender address if sender address is the creator of the event\n\tfunction withdraw(uint amount,string identifier) public {\n\t\trequire(amount < identifierToEvent[identifier].balance);\n\t\trequire(msg.sender == identifierToEvent[identifier].addr);\n\t\tmsg.sender.send(amount);\n\t}\n\t\n\t\n\n}\n",
  "sourcePath": "/home/linkuri267/Documents/vibes/Hack-IoT-2018/blockchain/contracts/mediator.sol",
  "compiler": {
    "name": "solc",
    "version": "0.4.19+commit.c4cbbb05.Emscripten.clang"
  },
  "schemaVersion": "1.0.1",
  "updatedAt": "2018-03-25T16:51:41.587Z"
}